:100000000C9435010C9466010C9466010C94660105
:100010000C9466010C9466010C9466010C946601C4
:100020000C9466010C9466010C9466010C946601B4
:100030000C9466010C9466010C9466010C946601A4
:100040000C9466010C9466010C9466010C94660194
:100050000C9466010C9466010C9466010C943605B0
:100060000C9466010C9400050C94D6040C94660163
:100070000C9466010C9466010C9466010C94660164
:100080000C9466010C9466010C9466010C94660154
:100090000C9466010C9466010C9466010C94660144
:1000A0000C9466010C9466010C9466010C94660134
:1000B0000C9466010C9466010C9466010C94660124
:1000C0000C9466010C9466010C9466010C94660114
:1000D0000C9466010C9466010C9466010C94660104
:1000E0000C9466010C94E3020C94D9020C949501D3
:1000F0000C94D5020C94DF020C94F5020C94E702E8
:100100000C94F1020C94FB020C94B8010C94C802FC
:100110000C94ED020C9438070C94CC020C94FF0262
:100120000C94FA020C94FE010C94A4010C94CF02DE
:100130000C94BA020C94C6010C94C0020C94680191
:100140000C944B020C94C4020000210024002700F0
:100150002A002D00300033000101000004010701D6
:100160000A0100002200250028002B002E0031008B
:10017000340002010000050108010B01000020000D
:100180002300260029002C002F003200000100006F
:10019000030106010901050505050705080808080A
:1001A000020202020A0A080804040404010101010F
:1001B000010101010303030303030303040707070A
:1001C0000C0C0C0C0C0C0C0C0202020206060606AF
:1001D000060606060B0B0B0B0B0B0B0B010210207C
:1001E000200808102040102040800201020108046D
:1001F0000201010204081020408080402010080401
:100200000201800402018040201008040201080459
:10021000020101020408102040800102040810209D
:10022000408000000A0B02090C0D0E0807030401B0
:1002300000000000000000000000000000000000BE
:10024000000000000000000000000000000012118B
:10025000100000000000000000000000000000008E
:100260000000000000000000380711241FBECFEF7F
:10027000D1E2DEBFCDBF00E00CBF12E0A0E0B2E0F3
:10028000EAE9F3E100E00BBF02C007900D92A2374C
:10029000B107D9F723E0A2E7B2E001C01D92A53271
:1002A000B207E1F711E0C5E3D1E000E006C0219715
:1002B0000109802FFE010E94C309C433D10780E0E9
:1002C0000807A9F70E9480050C94CB090C94000044
:1002D000AF92BF92CF92DF92EF92FF920F931F9354
:1002E000CF93DF936C017B018B01040F151FEB0192
:1002F0005E01AE18BF08C017D10759F06991D60149
:10030000ED91FC910190F081E02DC6011995892BAA
:1003100079F7C501DF91CF911F910F91FF90EF9079
:10032000DF90CF90BF90AF900895FC01538D448D26
:10033000252F30E0842F90E0821B930B541710F090
:10034000CF96089501970895FC01918D828D98179D
:1003500061F0A28DAE0FBF2FB11D5D968C91928D75
:100360009F5F9F73928F90E008958FEF9FEF0895A6
:10037000FC01918D828D981731F0828DE80FF11D6F
:10038000858D90E008958FEF9FEF0895FC01918D8A
:10039000228D892F90E0805C9F4F821B91098F7383
:1003A0009927089588E892E00E94C60121E0892BF0
:1003B00009F420E0822F0895FC01A48DA80FB92F25
:1003C000B11DA35ABF4F2C91848D90E001968F737D
:1003D0009927848FA689B7892C93A089B1898C919C
:1003E000837080648C93938D848D981306C00288EB
:1003F000F389E02D80818F7D80830895EF92FF92B5
:100400000F931F93CF93DF93EC0181E0888F9B8D37
:100410008C8D98131AC0E889F989808185FF15C0F1
:100420009FB7F894EE89FF896083E889F989808114
:100430008370806480839FBF81E090E0DF91CF91E3
:100440001F910F91FF90EF900895F62E0B8D10E005
:100450000F5F1F4F0F731127E02E8C8D8E110CC074
:100460000FB607FCFACFE889F989808185FFF5CFBF
:10047000CE010E94DC01F1CFEB8DEC0FFD2FF11DC1
:10048000E35AFF4FF0829FB7F8940B8FEA89FB89FC
:1004900080818062CFCFCF93DF93EC01888D88235A
:1004A000B9F0AA89BB89E889F9898C9185FD03C0D7
:1004B000808186FD0DC00FB607FCF7CF8C9185FFBC
:1004C000F2CF808185FFEDCFCE010E94DC01E9CF24
:1004D000DF91CF91089580E090E0892B29F00E9470
:1004E000D20181110E94000080E090E0892B49F048
:1004F00080E090E0892B29F00E94000081110E9489
:10050000000080E090E0892B49F080E090E0892BAA
:1005100029F00E94000081110E94000080E090E01C
:10052000892B49F080E090E0892B29F00E9400009F
:1005300081110C94000008958150823108F05AC056
:10054000E82FF0E08827E855FD4F8F4F0C94C30942
:10055000C802CC02BA02C002C402FA02CF02D5021B
:10056000D902DF02E302E702ED02F102FA02F5022C
:10057000FB02FF02809180008F77809380000895B6
:10058000809180008F7DF9CF80918000877FF5CFAB
:1005900084B58F7784BD089584B58F7DFBCF80911E
:1005A000B0008F778093B00008958091B0008F7D68
:1005B000F9CF809190008F7780939000089580917B
:1005C00090008F7DF9CF80919000877FF5CF80914B
:1005D000A0008F778093A00008958091A0008F7D68
:1005E000F9CF8091A000877FF5CF809120018F7790
:1005F000809320010895809120018F7DF9CF809113
:100600002001877FF5CFCF93DF93EFE5F2E0849170
:10061000E9E1F2E0D491E3EDF1E0C491CC23A1F063
:1006200081110E949C02EC2FF0E0EE0FFF1FE458B6
:10063000FE4FA591B491EC91ED2381E090E009F497
:1006400080E0DF91CF91089580E090E0FACF1F9392
:10065000CF93DF93EFE5F2E09491E9E1F2E0D491FA
:10066000E3EDF1E0C491CC23B9F0182F992319F0F0
:10067000892F0E949C02EC2FF0E0EE0FFF1FEE5935
:10068000FE4FA591B4918FB7F894EC91111108C069
:10069000D095DE23DC938FBFDF91CF911F9108951A
:1006A000DE2BF8CF3FB7F8948091770290917802D3
:1006B000A0917902B0917A0226B5A89B05C02F3F80
:1006C00019F00196A11DB11D3FBFBA2FA92F982F78
:1006D0008827BC01CD01620F711D811D911D42E073
:1006E000660F771F881F991F4A95D1F708958F923B
:1006F0009F92AF92BF92CF92DF92EF92FF924B0107
:100700005C010E9452036B017C010E9452036C1930
:100710007D098E099F09683E734081059105A8F304
:1007200021E0821A9108A108B10888EEC80E83E082
:10073000D81EE11CF11C81149104A104B10429F715
:10074000FF90EF90DF90CF90BF90AF909F908F90F1
:100750000895FC0101900020E9F73197AF01481B93
:10076000590BBC0188E892E00C9468018F929F922B
:10077000AF92BF920F931F93CF93DF93CDB7DEB7A6
:10078000A1970FB6F894DEBF0FBECDBF19A24230BD
:1007900008F44AE08E010F5D1F4F842E912CB12C7E
:1007A000A12CA50194010E946507E62FB901CA0199
:1007B000EA30F4F4E05DD801EE938D01232B242B75
:1007C000252B79F790E080E0109719F0CD010E9479
:1007D000A903A1960FB6F894DEBF0FBECDBFDF917F
:1007E000CF911F910F91BF90AF909F908F900895E0
:1007F000E95CE1CF4F925F926F927F928F929F92CE
:10080000AF92BF92CF92DF92EF92FF920F931F931E
:10081000CF936B017C01742EAC019B010E94BE0939
:10082000882399F082E192E0CF911F910F91FF9080
:10083000EF90DF90CF90BF90AF909F908F907F9080
:100840006F905F904F900C94A90346015701E89474
:10085000B7F82FEF3FEF4FE75FE7C501B4010E9404
:10086000BE0981110DC02FEF3FEF4FE75FE7C501D4
:10087000B4010E94F40718161CF486E192E0D4CF6C
:100880002FEF3FEF4FE75FE4C701B6010E944C092D
:1008900018161CF48AE192E0C7CF2FEF3FEF4FE725
:1008A0005FECC701B6010E94F40787FDF3CF20E09B
:1008B00030E0A901C701B6010E94F40710E000E092
:1008C00087FF0AC06DE288E892E00E94FE018C0179
:1008D000F7FAF094F7F8F094C0E060E070E080E0A0
:1008E0009FE37C1641F020E030E040E251E40E94BA
:1008F000F907CF5FF6CFA70196010E9488072B0169
:100900003C010E946B084B015C014AE00E94B60367
:100910007C01E00EF11ECC23C1F1C501B4010E949F
:100920009A089B01AC01C301B2010E9487074B01E9
:100930005C016EE288E892E00E94FE01E80EF91E7A
:10094000C15018F120E030E040E251E4C501B401AB
:100950000E9451092B013C010E946B084B01B12CF4
:10096000A12C4AE0C501B4010E94B603E80EF91EAD
:10097000C501B4010E949A089B01AC01C301B201F8
:100980000E9487074B015C01DBCFC701CF911F910C
:100990000F91FF90EF90DF90CF90BF90AF909F901E
:1009A0008F907F906F905F904F9008951F920F925D
:1009B0000FB60F9211240BB60F922F933F934F93C4
:1009C0005F936F937F938F939F93AF93BF93EF93B7
:1009D000FF9388E892E00E94DC01FF91EF91BF91C4
:1009E000AF919F918F917F916F915F914F913F91C7
:1009F0002F910F900BBE0F900FBE0F901F90189568
:100A00001F920F920FB60F9211240BB60F922F93D5
:100A10008F939F93EF93FF93E0919802F091990247
:100A20008081E0919E02F0919F0282FD1DC0908125
:100A30008091A1028F5F8F732091A202821741F0F3
:100A4000E091A102F0E0E857FD4F958F8093A1025D
:100A5000FF91EF919F918F912F910F900BBE0F906F
:100A60000FBE0F901F9018958081F2CF1F920F92AA
:100A70000FB60F9211242F933F938F939F93AF93B1
:100A8000BF938091730290917402A0917502B0910E
:100A900076023091720223E0230F2D3758F501962C
:100AA000A11DB11D20937202809373029093740272
:100AB000A0937502B09376028091770290917802AC
:100AC000A0917902B0917A020196A11DB11D809387
:100AD000770290937802A0937902B0937A02BF9143
:100AE000AF919F918F913F912F910F900FBE0F90DB
:100AF0001F90189526E8230F0296A11DB11DD2CF95
:100B0000789484B5826084BD84B5816084BD85B5E8
:100B1000826085BD85B5816085BD80916E008160F4
:100B200080936E001092810080918100826080939A
:100B3000810080918100816080938100809180009C
:100B40008160809380008091B10084608093B100C7
:100B50008091B00081608093B000809191008260AC
:100B600080939100809191008160809391008091A9
:100B700090008160809390008091A10082608093BA
:100B8000A1008091A10081608093A1008091A000CC
:100B900081608093A0008091210182608093210177
:100BA00080912101816080932101809120018160E9
:100BB0008093200180917A00846080937A008091F4
:100BC0007A00826080937A0080917A0081608093BD
:100BD0007A0080917A00806880937A001092C10038
:100BE000E0919802F091990282E08083E091940272
:100BF000F09195021082E0919602F09197028FECAD
:100C000080831092A002E0919C02F0919D0286E008
:100C10008083E0919A02F0919B02808180618083C1
:100C2000E0919A02F0919B02808188608083E0913C
:100C30009A02F0919B02808180688083E0919A0201
:100C4000F0919B0280818F7D808364EF71E080E072
:100C500090E00E9477038EE192E00E94A90384E471
:100C600092E00E94A90368EE73E080E090E00E94A9
:100C7000770359E1252E52E0352E63ED662E61E0B3
:100C8000762E7BE9E72EF12CCC24C394D12C109244
:100C900083021092840210928502109286021092B2
:100CA0008702F1012491F3018491882399F090E067
:100CB000880F991FFC01E85BFE4FA591B491FC01E0
:100CC000EE59FE4F859194918FB7F8949C91292B02
:100CD0002C938FBF80E00E94270364E170E080E0E6
:100CE00090E00E94770381E00E942703C7010197EB
:100CF000F1F7F1012491F30184918823C1F090E090
:100D0000880F991FFC01E85BFE4FA591B491FC018F
:100D1000EE59FE4FC591D4913FB7F8949C91822F24
:100D2000809598239C939881892388833FBFC1E154
:100D3000D7E20E940303892BA9F52197D1F787E415
:100D400092E00E94A90360917B0270917C028091E5
:100D50007D0290917E0242E00E94FA038BE592E0D0
:100D60000E94A9038FE592E00E94A90360917F028F
:100D700070918002809181029091820242E00E94F3
:100D8000FA038EE692E00E94A90384E492E00E94B6
:100D9000A90368E873E180E090E00E9477030E9475
:100DA0006B0275CFC1E1D7E20E940303019719F4EA
:100DB0002197D1F7C4CFC8E2D0E097E0592E412C5B
:100DC00001E117E20E940303892B21F4015011096C
:100DD000C9F7B5CF0E9452034B015C0101E117E254
:100DE0000E940303019721F401501109C9F7A7CF0D
:100DF0000E945203681979098A099B0969327105B1
:100E00008105910568F0E42DF0E0E558FD4F8085FF
:100E10009601052C01C0220F0A94EAF7822B8087E5
:100E2000511024C0439487E0582E219749F66091D1
:100E3000830270E090E080E00E949A0860937B0259
:100E400070937C0280937D0290937E026091850274
:100E500070E090E080E00E949A0860937F027093B7
:100E60008002809381029093820269CF5A94DDCFF1
:100E7000E8E8F2E01382128288EE93E0A0E0B0E0AE
:100E800084839583A683B78384E092E091838083F3
:100E900085EC90E09587848784EC90E0978786873F
:100EA00080EC90E0918B808B81EC90E0938B828B37
:100EB00082EC90E0958B848B86EC90E0978B868B10
:100EC000118E128E138E148E0895A1E21A2EAA1B73
:100ED000BB1BFD010DC0AA1FBB1FEE1FFF1FA217EA
:100EE000B307E407F50720F0A21BB30BE40BF50BE7
:100EF000661F771F881F991F1A9469F76095709570
:100F0000809590959B01AC01BD01CF01089550588B
:100F1000BB27AA270E949F070C9412090E9404096C
:100F200038F00E940B0920F039F49F3F19F426F4A1
:100F30000C9401090EF4E095E7FB0C94FB08E92FF3
:100F40000E94230958F3BA176207730784079507AD
:100F500020F079F4A6F50C9445090EF4E0950B2EDB
:100F6000BA2FA02D0B01B90190010C01CA01A001FB
:100F70001124FF27591B99F0593F50F4503E68F156
:100F80001A16F040A22F232F342F4427585FF3CF97
:100F9000469537952795A795F0405395C9F77EF468
:100FA0001F16BA0B620B730B840BBAF09150A1F0B1
:100FB000FF0FBB1F661F771F881FC2F70EC0BA0F37
:100FC000621F731F841F48F4879577956795B795BF
:100FD000F7959E3F08F0B0CF9395880F08F09927BA
:100FE000EE0F9795879508950E94D70808F481E041
:100FF00008950E940D080C9412090E940B0958F0E4
:101000000E94040940F029F45F3F29F00C94FB088A
:1010100051110C9446090C9401090E94230968F3AC
:101020009923B1F3552391F3951B550BBB27AA27A1
:1010300062177307840738F09F5F5F4F220F331FDB
:10104000441FAA1FA9F335D00E2E3AF0E0E832D0A3
:1010500091505040E695001CCAF72BD0FE2F29D0A6
:10106000660F771F881FBB1F261737074807AB0778
:10107000B0E809F0BB0B802DBF01FF2793585F4FED
:101080003AF09E3F510578F00C94FB080C94460909
:101090005F3FE4F3983ED4F3869577956795B795CF
:1010A000F7959F5FC9F7880F911D9695879597F9DA
:1010B0000895E1E0660F771F881FBB1F6217730753
:1010C0008407BA0720F0621B730B840BBA0BEE1F68
:1010D00088F7E09508950E942B0988F09F5798F0B3
:1010E000B92F9927B751B0F0E1F0660F771F881F2D
:1010F000991F1AF0BA95C9F714C0B13091F00E9447
:101100004509B1E008950C944509672F782F882789
:10111000B85F39F0B93FCCF3869577956795B3956D
:10112000D9F73EF490958095709561957F4F8F4FDC
:101130009F4F0895E89409C097FB3EF490958095E1
:10114000709561957F4F8F4F9F4F9923A9F0F92F8D
:1011500096E9BB279395F695879577956795B7950B
:10116000F111F8CFFAF4BB0F11F460FF1BC06F5FF1
:101170007F4F8F4F9F4F16C0882311F096E911C003
:10118000772321F09EE8872F762F05C0662371F024
:1011900096E8862F70E060E02AF09A95660F771F38
:1011A000881FDAF7880F9695879597F90895990F14
:1011B0000008550FAA0BE0E8FEEF16161706E80721
:1011C000F907C0F012161306E407F50798F0621B42
:1011D000730B840B950B39F40A2661F0232B242B17
:1011E000252B21F408950A2609F4A140A6958FEF36
:1011F000811D811D089597F99F6780E870E060E088
:1012000008959FEF80EC089500240A94161617069F
:1012100018060906089500240A94121613061406E7
:1012200005060895092E0394000C11F4882352F04A
:10123000BB0F40F4BF2B11F460FF04C06F5F7F4F02
:101240008F4F9F4F089557FD9058440F551F59F0E9
:101250005F3F71F04795880F97FB991F61F09F3FA3
:1012600079F087950895121613061406551FF2CFCC
:101270004695F1DF08C0161617061806991FF1CF1C
:1012800086957105610508940895E894BB27662743
:101290007727CB0197F908950E94D70808F48FEFBC
:1012A00008950E9464090C9412090E94040938F000
:1012B0000E940B0920F0952311F00C94FB080C946C
:1012C000010911240C9446090E94230970F3959F8B
:1012D000C1F3950F50E0551F629FF001729FBB272D
:1012E000F00DB11D639FAA27F00DB11DAA1F649FC9
:1012F0006627B00DA11D661F829F2227B00DA11D7C
:10130000621F739FB00DA11D621F839FA00D611D01
:10131000221F749F3327A00D611D231F849F600D22
:10132000211D822F762F6A2F11249F5750409AF04B
:10133000F1F088234AF0EE0FFF1FBB1F661F771FD7
:10134000881F91505040A9F79E3F510580F00C94A2
:10135000FB080C9446095F3FE4F3983ED4F386956E
:1013600077956795B795F795E7959F5FC1F7FE2B42
:10137000880F911D9695879597F908950E94D70833
:10138000880B990B0895EE0FFF1F881F8BBF0790E6
:0A139000F691E02D1994F894FFCFB8
:10139A0000000000FE01680195014B02C601A4018C
:1013AA00B8016E616E00696E66006F766600444829
:1013BA005431312048756D69646974792026207426
:1013CA00656D70657261747572652053656E736FB1
:1013DA00720A0A000D0A0043757272656E742068FB
:1013EA00756D6964697479203D2000252020007498
:1013FA00656D7065726174757265203D20004320C9
:02140A002000C0
:00000001FF
