:100000000C945D000C947A000C947A000C947A00A5
:100010000C947A000C947A000C947A000C947A0078
:100020000C947A000C947A000C947A000C947A0068
:100030000C947A000C947A000C947A000C947A0058
:100040000C94C8000C947A000C947A000C947A00FA
:100050000C947A000C947A000C947A000C947A0038
:100060000C947A000C947A00000000080002010051
:100070000003040700000000000000000000000072
:10008000250028002B0000000000240027002A0083
:10009000040404040404040402020202020203032E
:1000A0000303030301020408102040800102040836
:1000B0001020010204081020D30111241FBECFEF2D
:1000C000D8E0DEBFCDBF21E0A0E0B1E001C01D92CD
:1000D000AF30B207E1F710E0CDE5D0E004C02197E2
:1000E000FE010E948F02CC35D107C9F70E94120190
:1000F0000C9495020C94000090E0FC01E859FF4F2D
:100100003491FC01EC55FF4F2491FC01E057FF4F67
:10011000E491EE2309F43BC0332339F1333091F0FD
:1001200038F43130A9F0323001F584B58F7D12C03A
:10013000373091F03830A1F03430B9F4809180003C
:100140008F7D03C0809180008F77809380000DC0E9
:1001500084B58F7784BD09C08091B0008F7703C0CC
:100160008091B0008F7D8093B000F0E0EE0FFF1F14
:10017000E458FF4FA591B4918FB7F894EC916111B9
:1001800003C020952E2301C02E2B2C938FBF0895E2
:100190001F920F920FB60F9211242F933F938F93BC
:1001A0009F93AF93BF9380910B0190910C01A0910D
:1001B0000D01B0910E0130910A0123E0230F2D377C
:1001C00020F40196A11DB11D05C026E8230F02965B
:1001D000A11DB11D20930A0180930B0190930C0186
:1001E000A0930D01B0930E0180910601909107013B
:1001F000A0910801B09109010196A11DB11D809344
:10020000060190930701A0930801B0930901BF91E3
:10021000AF919F918F913F912F910F900FBE0F90B3
:100220001F901895789484B5826084BD84B58160F0
:1002300084BD85B5826085BD85B5816085BD8091B1
:100240006E00816080936E00109281008091810029
:100250008260809381008091810081608093810021
:10026000809180008160809380008091B1008460E3
:100270008093B1008091B00081608093B000809144
:100280007A00846080937A0080917A008260809303
:100290007A0080917A00816080937A0080917A0060
:1002A000806880937A001092C10021E030E0F9016B
:1002B000EC55FF4F4491F901E057FF4F849188239B
:1002C00099F090E0880F991FFC01EA57FF4FA59124
:1002D000B491FC01E458FF4F859194918FB7F89445
:1002E000EC91E42BEC938FBF2F5F3F4F2E30310505
:1002F000F1F6E2EBF0E02491EEE9F0E0849188235E
:10030000C1F090E0880F991FFC01EA57FF4FC5919B
:10031000D491FC01E458FF4FA591B4919FB7F89494
:100320008881E22FE0958E2388838C91E823EC93DB
:100330009FBF00E010E0C2E0D0E0C0900201D0908A
:100340000301E0900401F0900501BE010D2E000CA8
:10035000880B990B0E940302A70196010E94FC01E1
:10036000181634F061E08C2F0E947C002196E5CFB6
:10037000CDE0D0E0BE010D2E000C880B990B0E9441
:100380000302A70196010E94620287FD06C060E099
:100390008C2F0E947C002197EDCF0115110559F299
:1003A0000E940000C8CF80E480937C0080917A0096
:1003B000806480937A0080917A0086FDFCCF8091E2
:1003C00078002091790090E0922B90930101809326
:1003D00000016AE070E00E946702072E000C880BA3
:1003E000990B0E94030260930201709303018093B2
:1003F00004019093050108950E943E0208F481E0F3
:100400000895E89409C097FB3EF490958095709507
:1004100061957F4F8F4F9F4F9923A9F0F92F96E950
:10042000BB279395F695879577956795B795F111C5
:10043000F8CFFAF4BB0F11F460FF1BC06F5F7F4F62
:100440008F4F9F4F16C0882311F096E911C0772374
:1004500021F09EE8872F762F05C0662371F096E87D
:10046000862F70E060E02AF09A95660F771F881F4C
:10047000DAF7880F9695879597F90895990F0008F0
:10048000550FAA0BE0E8FEEF16161706E807F90766
:10049000C0F012161306E407F50798F0621B730B01
:1004A000840B950B39F40A2661F0232B242B252B82
:1004B00021F408950A2609F4A140A6958FEF811D25
:1004C000811D08950E943E0208F48FEF089597FB66
:1004D000072E16F4009407D077FD09D00E947B0206
:1004E00007FC05D03EF4909581959F4F0895709537
:1004F00061957F4F0895AA1BBB1B51E107C0AA1F3E
:10050000BB1FA617B70710F0A61BB70B881F991FB4
:100510005A95A9F780959095BC01CD010895EE0FED
:0E052000FF1F0590F491E02D0994F894FFCF91
:00000001FF
