:100000000C9463000C948B000C948B000C94F605FC
:100010000C94F6050C94F6050C948B000C948B0054
:100020000C948B000C948B000C948B000C948B0024
:100030000C948B000C948B000C948B000C948B0014
:100040000C94AC050C948B000C947A050C9454051C
:100050000C948B000C948B000C948B000C948B00F4
:100060000C948B000C948B000000000024002700EF
:100070002A0000000008000201000003040700003D
:1000800000000000000000000000230026002900FE
:1000900000000000250028002B00040404040404D0
:1000A0000404020202020202030303030303010227
:1000B00004081020408001020408102001020408F6
:1000C00010206E06CA0811241FBECFEFD8E0DEBF95
:1000D000CDBF11E0A0E0B1E0EEEFF6E102C0059087
:1000E0000D92A83BB107D9F722E0A8EBB1E001C01F
:1000F0001D92AD3CB207E1F710E0C2E6D0E004C0CB
:100100002197FE010E946C0BC136D107C9F70E94EE
:1001100019070C94720B0C940000AF92BF92CF920F
:10012000DF92EF92FF920F931F93CF93DF936C01B7
:100130007B018B01040F151FEB015E01AE18BF0898
:10014000C017D10759F06991D601ED91FC9101904A
:10015000F081E02DC6010995892B79F7C501DF9162
:10016000CF911F910F91FF90EF90DF90CF90BF90B4
:10017000AF900895FC01538D448D252F30E0842FDE
:1001800090E0821B930B541710F0CF9608950197BF
:100190000895FC01918D828D981761F0A28DAE0FAC
:1001A000BF2FB11D5D968C91928D9F5F9F73928F33
:1001B00090E008958FEF9FEF0895FC01918D828D5F
:1001C000981731F0828DE80FF11D858D90E008952C
:1001D0008FEF9FEF0895FC01918D228D892F90E084
:1001E000805C9F4F821B91098F739927089581E14D
:1001F00092E00E94EB0021E0892B09F420E0822F9D
:10020000089580E090E0892B29F00E94F700811189
:100210000C9400000895FC01A48DA80FB92FB11D06
:10022000A35ABF4F2C91848D90E001968F7399272C
:10023000848FA689B7892C93A089B1898C9183700A
:1002400080648C93938D848D981306C00288F38903
:10025000E02D80818F7D80830895EF92FF920F9330
:100260001F93CF93DF93EC0181E0888F9B8D8C8D62
:1002700098131AC0E889F989808185FF15C09FB756
:10028000F894EE89FF896083E889F9898081837019
:10029000806480839FBF81E090E0DF91CF911F91C8
:1002A0000F91FF90EF900895F62E0B8D10E00F5FE9
:1002B0001F4F0F731127E02E8C8D8E110CC00FB6BF
:1002C00007FCFACFE889F989808185FFF5CFCE0157
:1002D0000E940B01F1CFEB8DEC0FFD2FF11DE35AC6
:1002E000FF4FF0829FB7F8940B8FEA89FB898081DA
:1002F0008062CFCFCF93DF93EC01888D8823B9F054
:10030000AA89BB89E889F9898C9185FD03C0808120
:1003100086FD0DC00FB607FCF7CF8C9185FFF2CF9D
:10032000808185FFEDCFCE010E940B01E9CFDF91E7
:10033000CF910895833081F028F4813099F0823094
:10034000A9F008958730A9F08830C9F08430B1F45D
:10035000809180008F7D03C0809180008F77809393
:100360008000089584B58F7784BD089584B58F7D0E
:10037000FBCF8091B0008F778093B000089580917B
:10038000B0008F7DF9CFCF93DF93282F30E0F901B4
:10039000EE58FF4F8491F901E255FF4FD491F901D6
:1003A000E656FF4FC491CC23A1F081110E949A011F
:1003B000EC2FF0E0EE0FFF1FEA57FF4FA591B4912D
:1003C000EC91ED2381E090E009F480E0DF91CF91A2
:1003D000089580E090E0FACF1F93CF93DF93282F0A
:1003E00030E0F901EE58FF4F8491F901E255FF4FDB
:1003F000D491F901E656FF4FC491CC23A9F0162FF2
:1004000081110E949A01EC2FF0E0EE0FFF1FE057E0
:10041000FF4FA591B4918FB7F894EC91111108C0DA
:10042000D095DE23DC938FBFDF91CF911F9108958C
:10043000DE2BF8CFCF93DF9390E0FC01E255FF4F26
:10044000249186569F4FFC0184918823D1F090E03F
:10045000880F991FFC01E859FF4FA591B491FC0149
:10046000E057FF4FC591D49161110EC09FB7F8942A
:100470008C91E22FE0958E238C932881E223E883F0
:100480009FBFDF91CF9108958FB7F894EC91E22B45
:10049000EC938FBFF6CF3FB7F8948091070290910D
:1004A0000802A0910902B0910A0226B5A89B05C0D6
:1004B0002F3F19F00196A11DB11D3FBFBA2FA92FE3
:1004C000982F8827BC01CD01620F711D811D911DE0
:1004D00042E0660F771F881F991F4A95D1F708954C
:1004E0008F929F92AF92BF92CF92DF92EF92FF9244
:1004F0004B015C010E944B026B017C010E944B028C
:100500006C197D098E099F09683E7340810591052C
:10051000A8F321E0821A9108A108B10888EEC80E5C
:1005200083E0D81EE11CF11C81149104A104B104E4
:1005300029F7FF90EF90DF90CF90BF90AF909F9002
:100540008F90089520910D0230910E0228173907DF
:1005500071F490910B0280910C02981741F0E09198
:100560000B02F0E0EE53FE4F808190E008958FEF94
:100570009FEF08950895EF92FF920F931F93CF93EB
:10058000DF93DC015C96ED90FC905D97E114F10443
:1005900079F481E090E013969C938E93129790E00B
:1005A00080E0DF91CF911F910F91FF90EF90089520
:1005B0005196ED91FC91529750968C915097982FAF
:1005C00090950FB75E962C915E97122F127021FDB9
:1005D0006095F8942081112319F1282B2083E701DD
:1005E0002197F1F728E0462F50E0308160FF1AC0D4
:1005F000382B3083E7012197F1F7BA01759567959C
:10060000215089F7112381F08081892380830FBFD6
:100610005C968D919C910197F1F781E090E0C1CFBC
:100620002923DCCF3923E5CF9081892BEFCF20918F
:100630000D0230910E022817390771F480910C02D7
:1006400020910B0290E0805C9F4F821B910960E437
:1006500070E00E94220B089590E080E008952091C0
:100660000D0230910E0228173907B9F490910B0250
:1006700080910C02981789F0E0910B02F0E0EE53A4
:10068000FE4F808120910B0230E02F5F3F4F2F7390
:10069000332720930B0290E008958FEF9FEF08958A
:1006A00090E080E00895FC0101900020E9F7319787
:1006B000AF01481B590BBC018EEA92E00C948D00EF
:1006C0008F929F92AF92BF920F931F93CF93DF931E
:1006D000CDB7DEB7A1970FB6F894DEBF0FBECDBF82
:1006E00019A2423008F44AE08E010F5D1F4F842E9C
:1006F000912CB12CA12CA50194010E94360BE62F60
:10070000B901CA01EA30F4F4E05DD801EE938D013D
:10071000232B242B252B79F790E080E0109719F0FC
:10072000CD010E945303A1960FB6F894DEBF0FBE11
:10073000CDBFDF91CF911F910F91BF90AF909F9050
:100740008F900895E95CE1CF4F925F926F927F9214
:100750008F929F92AF92BF92CF92DF92EF92FF92D1
:100760000F931F93CF936B017C01742EAC019B01FF
:100770000E941D0B882399F084E291E0CF911F9194
:100780000F91FF90EF90DF90CF90BF90AF909F9030
:100790008F907F906F905F904F900C945303460121
:1007A0005701E894B7F82FEF3FEF4FE75FE7C50138
:1007B000B4010E941D0B81110DC02FEF3FEF4FE7D9
:1007C0005FE7C501B4010E94530918161CF488E2C2
:1007D00091E0D4CF2FEF3FEF4FE75FE4C701B601C1
:1007E0000E94AB0A18161CF48CE291E0C7CF2FEFE1
:1007F0003FEF4FE75FECC701B6010E94530987FD49
:10080000F3CF20E030E0A901C701B6010E945309EF
:1008100010E000E087FF0AC06DE28EEA92E00E94DD
:10082000BB028C01F7FAF094F7F8F094C0E060E0B6
:1008300070E080E09FE37C1641F020E030E040E291
:1008400051E40E945809CF5FF6CFA70196010E949C
:10085000E7082B013C010E94CA094B015C014AE0F8
:100860000E9460037C01E00EF11ECC23C1F1C501A2
:10087000B4010E94F9099B01AC01C301B2010E94BD
:10088000E6084B015C016EE28EEA92E00E94BB0238
:10089000E80EF91EC15018F120E030E040E251E4CA
:1008A000C501B4010E94B00A2B013C010E94CA0993
:1008B0004B01B12CA12C4AE0C501B4010E94600398
:1008C000E80EF91EC501B4010E94F9099B01AC01B3
:1008D000C301B2010E94E6084B015C01DBCFC701F6
:1008E000CF911F910F91FF90EF90DF90CF90BF902D
:1008F000AF909F908F907F906F905F904F900895F2
:10090000CF93DF930E945303EC0180E391E00E94B8
:1009100053038C0F9D1FDF91CF910895CF92DF92EB
:10092000EF92FF9280E480937C0080917A00806453
:1009300080937A0080917A0086FDFCCF80917800C8
:1009400060917900762F682F7093C1016093C00188
:10095000072E000C880B990B0E94FB0920E030EC5D
:100960004FE754E40E94580920E030E44CE955E494
:100970000E94B00A6093BC017093BD018093BE01D8
:100980009093BF0120E030E44CE155E40E94E6087A
:1009900020E030E044E852E40E9458096093B80136
:1009A0007093B9018093BA019093BB0183E391E006
:1009B0000E948004C090C001D090C1010D2C000C99
:1009C000EE08FF084AE0C701B601F7FE0DC06DE270
:1009D0008EEA92E00E94BB0266277727CB016C1952
:1009E0007D098E099F094AE00E94600380E391E03F
:1009F0000E94530360ED77E080E090E00E94700277
:100A000087E491E00E9480046091BC017091BD0177
:100A10008091BE019091BF0143E00E94A40380E356
:100A200091E00E94530360ED77E080E090E00E9447
:100A3000700288E591E00E9480046091B801709195
:100A4000B9018091BA019091BB0143E00E94A403D7
:100A500080E391E00E94530364EC79E080E090E051
:100A6000FF90EF90DF90CF900C94700285E691E0BC
:100A70000E94800464E670E080E090E00E947002D2
:100A80000E948E0464E670E080E090E00E947002B4
:100A90008BE691E00E94800468EE73E080E090E0D5
:100AA0000E9470020C948E041F920F920FB60F9248
:100AB00011242F933F934F935F936F937F938F9363
:100AC0009F93AF93BF93EF93FF9381E192E00E94D6
:100AD0000B01FF91EF91BF91AF919F918F917F910A
:100AE0006F915F914F913F912F910F900FBE0F909B
:100AF0001F9018951F920F920FB60F9211242F93EB
:100B00008F939F93EF93FF93E0912102F091220244
:100B10008081E0912702F091280282FD1BC0908124
:100B200080912A028F5F8F7320912B02821741F0F0
:100B3000E0912A02F0E0EF5EFD4F958F80932A024C
:100B4000FF91EF919F918F912F910F900FBE0F907A
:100B50001F9018958081F4CF1F920F920FB60F92BD
:100B600011242F933F938F939F93AF93BF938091C3
:100B7000030290910402A0910502B0910602309107
:100B8000020223E0230F2D3758F50196A11DB11D58
:100B9000209302028093030290930402A093050223
:100BA000B09306028091070290910802A091090279
:100BB000B0910A020196A11DB11D80930702909386
:100BC0000802A0930902B0930A02BF91AF919F91CE
:100BD0008F913F912F910F900FBE0F901F901895FE
:100BE00026E8230F0296A11DB11DD2CF1F920F92AE
:100BF0000FB60F9211242F933F934F935F936F93F0
:100C00007F938F939F93AF93BF93EF93FF93E09165
:100C10000D02F0910E02309749F0A685B7858585C3
:100C2000968D91FF14C09C918923A1F4FF91EF91BF
:100C3000BF91AF919F918F917F916F915F914F91F4
:100C40003F912F910F900FBE0F901F9018959C9180
:100C5000892361F7A389B4899C918589809589232B
:100C60008C93868997890197F1F7608D718DA685A0
:100C7000B785558538E020E0CB010197F1F7822F49
:100C800090E095958795282F4C91452309F0206891
:100C9000315091F7868D81FD209580910C0290E076
:100CA00001968F73992730910B02381799F0A09114
:100CB0000C02B0E0AE53BE4F2C9380930C02828D99
:100CC000938D0197F1F7A389B4898C919589892B2C
:100CD0008C93ACCF868D8160868FF1CF10921402F9
:100CE0001092130288EE93E0A0E0B0E0809315022A
:100CF00090931602A0931702B093180224E031E0FB
:100D0000309312022093110225EC30E030931E0242
:100D100020931D0224EC30E03093200220931F0228
:100D200020EC30E0309322022093210221EC30E0CD
:100D3000309324022093230222EC30E030932602E9
:100D40002093250226EC30E03093280220932702DE
:100D500010922A0210922B0210922C0210922D0255
:100D60001092B1021092B0028093B2029093B3023B
:100D7000A093B402B093B50286E191E09093AF02E4
:100D80008093AE021092C5021092C4021092C70264
:100D90001092C6021092C9021092C8021092CB02A1
:100DA0001092CA026091CC026E7F6D7F6093CC027C
:100DB0006695617081E068278AE00E94EC0161E03D
:100DC0008AE00E941A02E8EBF0E0E491E093BE02B0
:100DD000E4EAF0E0E491F0E0EE0FFF1FE057FF4F90
:100DE000859194919093C0028093BF0260E089E066
:100DF0000E941A028091CC0281FD04C061E089E06A
:100E00000E94EC0189E08093BA02E7EBF0E0E49104
:100E1000E093BB02E3EAF0E0E491F0E0EE0FFF1FA5
:100E2000EA57FF4F859194919093BD028093BC0245
:100E30000895789484B5826084BD84B5816084BD52
:100E400085B5826085BD85B5816085BD80916E0068
:100E5000816080936E001092810080918100826099
:100E600080938100809181008160809381008091D6
:100E700080008160809380008091B10084608093C5
:100E8000B1008091B00081608093B00080917A00C1
:100E9000846080937A0080917A00826080937A00E7
:100EA00080917A00816080937A0080917A008068D6
:100EB00080937A001092C1001092C9021092C80269
:100EC0001092C7021092C6021092C5021092C4027C
:100ED0008DE991E09093CB028093CA029091BA027F
:100EE000963108F047C02DEB30E03093C5022093D7
:100EF000C4022BE931E03093C7022093C6022CE2F2
:100F000031E03093C9022093C8022091680084E048
:100F1000983048F031E09E3008F430E081E001C0C4
:100F2000880F3A95EAF7822B809368002DE630E02F
:100F3000983050F02BE630E09E3030F02CE630E078
:100F4000963110F030E020E03093C2022093C102CD
:100F5000292F30E0983008F0F3C081E001C0880FFD
:100F60009A95EAF78093C3028091CA029091CB02CE
:100F70000197F1F78091C8029091C902892B49F13C
:100F8000E0910D02F0910E0282E0EE3AF80709F1CD
:100F9000309739F0A389B4899C91858980958923FC
:100FA0008C938091CC028E7F8093CC0210920C02A5
:100FB00010920B028EEA92E090930E0280930D0243
:100FC000E091C102F091C20280819091C302892B0D
:100FD0008083E0912102F091220282E08083E091FF
:100FE0001D02F0911E021082E0911F02F09120027A
:100FF0008FEC808310922902E0912502F091260265
:1010000086E08083E0912302F09124028081806158
:101010008083E0912302F0912402808188608083A4
:10102000E0912302F0912402808180688083E09126
:101030002302F091240280818F7D808364E670E03A
:1010400080E090E00E94700261E083E00E941A025A
:1010500061E084E00E941A0260E080E10E941A02CE
:1010600060E08FE00E941A0200E010E08EEA92E059
:101070000E94170318161906C4F58EEA92E00E9422
:101080002F038237910509F468C08337910569F50C
:101090008DE791E00E94800464E670E080E090E0DB
:1010A0000E94700287E891E00E94800464E670E08C
:1010B00080E090E00E9470028FE991E00E9480043D
:1010C00064E670E080E090E00E9470026AE18EEADF
:1010D00092E00E94BB0280E391E00E94530368EE1D
:1010E00073E080E090E00E94700280E10E94C30102
:1010F000EC019093100280930F028FE00E94C301D5
:10110000C130D105D1F58130910571F560E084E001
:101110000E94EC0161E083E00E94EC0168EE73E064
:1011200080E090E00E9470020115110509F49ECF45
:101130000E94F700882309F499CF0E94000096CFFF
:101140009E3040F42850310981E001C0880F2A9573
:10115000EAF708CF2E503109F7CF0E94360561E03B
:101160008DE00E94EC01C1CF61E0892B09F060E0C5
:1011700083E00E94EC0160E00BC0CD2BC1F701972A
:10118000B1F70E94360560E083E00E94EC0161E067
:1011900084E0C2CF86E191E09093AF028093AE02EB
:1011A00080910D0290910E028E5A924071F4E0915E
:1011B000C102F091C20290818091C302809589237F
:1011C000808310920E0210920D0208955058BB2792
:1011D000AA270E94FE080C94710A0E94630A38F044
:1011E0000E946A0A20F039F49F3F19F426F40C9407
:1011F000600A0EF4E095E7FB0C945A0AE92F0E946E
:10120000820A58F3BA17620773078407950720F01C
:1012100079F4A6F50C94A40A0EF4E0950B2EBA2FDF
:10122000A02D0B01B90190010C01CA01A0011124EC
:10123000FF27591B99F0593F50F4503E68F11A1698
:10124000F040A22F232F342F4427585FF3CF469529
:1012500037952795A795F0405395C9F77EF41F164B
:10126000BA0B620B730B840BBAF09150A1F0FF0F15
:10127000BB1F661F771F881FC2F70EC0BA0F621F01
:10128000731F841F48F4879577956795B795F795F1
:101290009E3F08F0B0CF9395880F08F09927EE0F86
:1012A0009795879508950E94360A08F481E008957D
:1012B0000E946C090C94710A0E946A0A58F00E94FC
:1012C000630A40F029F45F3F29F00C945A0A511147
:1012D0000C94A50A0C94600A0E94820A68F3992370
:1012E000B1F3552391F3951B550BBB27AA27621722
:1012F0007307840738F09F5F5F4F220F331F441F2F
:10130000AA1FA9F335D00E2E3AF0E0E832D0915062
:101310005040E695001CCAF72BD0FE2F29D0660F4F
:10132000771F881FBB1F261737074807AB07B0E892
:1013300009F0BB0B802DBF01FF2793585F4F3AF098
:101340009E3F510578F00C945A0A0C94A50A5F3F11
:10135000E4F3983ED4F3869577956795B795F7951E
:101360009F5FC9F7880F911D9695879597F9089506
:10137000E1E0660F771F881FBB1F621773078407A2
:10138000BA0720F0621B730B840BBA0BEE1F88F7B1
:10139000E09508950E948A0A88F09F5798F0B92F27
:1013A0009927B751B0F0E1F0660F771F881F991F9A
:1013B0001AF0BA95C9F714C0B13091F00E94A40A8E
:1013C000B1E008950C94A40A672F782F8827B85F9E
:1013D00039F0B93FCCF3869577956795B395D9F7F2
:1013E0003EF490958095709561957F4F8F4F9F4FFC
:1013F0000895E89409C097FB3EF490958095709508
:1014000061957F4F8F4F9F4F9923A9F0F92F96E950
:10141000BB279395F695879577956795B795F111C5
:10142000F8CFFAF4BB0F11F460FF1BC06F5F7F4F62
:101430008F4F9F4F16C0882311F096E911C0772374
:1014400021F09EE8872F762F05C0662371F096E87D
:10145000862F70E060E02AF09A95660F771F881F4C
:10146000DAF7880F9695879597F90895990F0008F0
:10147000550FAA0BE0E8FEEF16161706E807F90766
:10148000C0F012161306E407F50798F0621B730B01
:10149000840B950B39F40A2661F0232B242B252B82
:1014A00021F408950A2609F4A140A6958FEF811D25
:1014B000811D089597F99F6780E870E060E00895C6
:1014C0009FEF80EC089500240A941616170618065C
:1014D0000906089500240A94121613061406050638
:1014E0000895092E0394000C11F4882352F0BB0FC9
:1014F00040F4BF2B11F460FF04C06F5F7F4F8F4F2C
:101500009F4F089557FD9058440F551F59F05F3F66
:1015100071F04795880F97FB991F61F09F3F79F015
:1015200087950895121613061406551FF2CF469597
:10153000F1DF08C0161617061806991FF1CF869519
:101540007105610508940895E894BB2766277727FD
:10155000CB0197F908950E94360A08F48FEF089599
:101560000E94C30A0C94710A0E94630A38F00E9418
:101570006A0A20F0952311F00C945A0A0C94600A20
:1015800011240C94A50A0E94820A70F3959FC1F35E
:10159000950F50E0551F629FF001729FBB27F00D21
:1015A000B11D639FAA27F00DB11DAA1F649F662776
:1015B000B00DA11D661F829F2227B00DA11D621FC5
:1015C000739FB00DA11D621F839FA00D611D221F7F
:1015D000749F3327A00D611D231F849F600D211D63
:1015E000822F762F6A2F11249F5750409AF0F1F0E6
:1015F00088234AF0EE0FFF1FBB1F661F771F881F4F
:1016000091505040A9F79E3F510580F00C945A0A22
:101610000C94A50A5F3FE4F3983ED4F38695779542
:101620006795B795F795E7959F5FC1F7FE2B880FF4
:10163000911D9695879597F908950E94360A880B13
:10164000990B089597FB072E16F4009407D077FDA9
:1016500009D00E94580B07FC05D03EF49095819567
:101660009F4F0895709561957F4F0895A1E21A2EBE
:10167000AA1BBB1BFD010DC0AA1FBB1FEE1FFF1F36
:10168000A217B307E407F50720F0A21BB30BE40B86
:10169000F50B661F771F881F991F1A9469F76095CD
:1016A0007095809590959B01AC01BD01CF01089587
:1016B000AA1BBB1B51E107C0AA1FBB1FA617B70778
:1016C00010F0A61BB70B881F991F5A95A9F7809594
:1016D0009095BC01CD010895EE0FFF1F0590F49188
:1016E000E02D099410E0C2E6D0E004C0FE010E94A3
:0E16F0006C0B2196C336D107C9F7F894FFCFD3
:1016FE00000000002D018D00BA007A01EB00C90038
:10170E00DD0000000000BB028D005003BA0217037B
:10171E002F03A2026E616E00696E66006F76660020
:10172E000D0A005261772053656E736F72205661F9
:10173E006C7565203D20000920566F6C74616765DD
:10174E00286D5629203D2000092043757272656E62
:10175E0074203D200068656C6C6F0041542B434E25
:10176E004D493D322C322C302C302C300041542B34
:10177E00434D47463D310041542B434D47533D2287
:10178E002B3235343930373639383031220D004965
:10179E0020616D20534D532066726F6D2047534D5F
:0817AE00204D6F64756C6500AD
:00000001FF
