:100000000C9417010C942B010C942B010C942B01D4
:100010000C942B010C942B010C942B010C942B01B0
:100020000C942B010C942B010C942B010C942B01A0
:100030000C942B010C942B010C942B010C942B0190
:100040000C942B010C942B010C942B010C942B0180
:100050000C942B010C942B010C942B010C945E013D
:100060000C942B010C942B010C942B010C942B0160
:100070000C942B010C942B010C942B010C942B0150
:100080000C942B010C942B010C942B010C942B0140
:100090000C942B010C942B010C942B010C942B0130
:1000A0000C942B010C942B010C942B010C942B0120
:1000B0000C942B010C942B010C942B010C942B0110
:1000C0000C942B010C942B010C942B010C942B0100
:1000D0000C942B010C942B010C942B010C942B01F0
:1000E0000C942B010C945B020C9460020C94BC02E7
:1000F0000C94B2020C948B020C94A4020C94AA02ED
:100100000C949A020C94CA020C94C6020C949702A6
:100110000C94AE020C9493020C94C0020C948F02C7
:100120000C94A0020C94B8020000210024002700C7
:100130002A002D00300033000101000004010701F6
:100140000A0100002200250028002B002E003100AB
:10015000340002010000050108010B010505050539
:10016000070508080808020202020A0A080804042F
:10017000040401010101010101010303030303035D
:100180000303040707070C0C0C0C0C0C0C0C0202EC
:10019000020206060606060606060B0B0B0B0B0BE9
:1001A0000B0B010210202008081020401020408076
:1001B000020102010804020101020408102040802B
:1001C00080402010080402018004020180402010B9
:1001D0000804020108040201010204081020408002
:1001E000010204081020408000000A0B02090C0DD7
:1001F0000E080703040100000000000000000000DA
:1002000000000000000000000000000000000000EE
:1002100000000000121110000000000000000000AB
:100220000000000000000000000000000000112499
:100230001FBECFEFD1E2DEBFCDBF00E00CBF22E09A
:10024000A0E0B2E001C01D92A930B207E1F70E9420
:10025000A8010C94D6020C940000CF93DF9390E099
:10026000FC01EE55FE4F2491845A9E4FFC0184916F
:100270008823D1F090E0880F991FFC01E85DFE4FC4
:10028000A591B491FC01EE5BFE4FC591D491611133
:100290000EC09FB7F8948C91E22FE0958E238C933B
:1002A0002881E223E8839FBFDF91CF9108958FB724
:1002B000F894EC91E22BEC938FBFF6CF1F920F9244
:1002C0000FB60F9211242F933F938F939F93AF9369
:1002D000BF938091050290910602A0910702B09110
:1002E00008023091040223E0230F2D3758F50196C0
:1002F000A11DB11D20930402809305029093060274
:10030000A0930702B093080280910002909101022D
:10031000A0910202B09103020196A11DB11D80932C
:10032000000290930102A0930202B0930302BF91D6
:10033000AF919F918F913F912F910F900FBE0F9092
:100340001F90189526E8230F0296A11DB11DD2CF4C
:10035000789484B5826084BD84B5816084BD85B5A0
:10036000826085BD85B5816085BD80916E008160AC
:1003700080936E0010928100809181008260809352
:100380008100809181008160809381008091800054
:100390008160809380008091B10084608093B1007F
:1003A0008091B00081608093B00080919100826064
:1003B0008093910080919100816080939100809161
:1003C00090008160809390008091A1008260809372
:1003D000A1008091A10081608093A1008091A00084
:1003E00081608093A000809121018260809321012F
:1003F00080912101816080932101809120018160A1
:100400008093200180917A00846080937A008091AB
:100410007A00826080937A0080917A008160809374
:100420007A0080917A00806880937A001092C100EF
:1004300061E086E00E942D0161E084E00E942D01D0
:1004400061E083E00E942D0161E089E00E942D01BE
:1004500061E08AE00E942D0160E086E30E942D01A8
:10046000EBEEF1E08491E5EAF1E02491EFE5F1E0D3
:100470009491992309F432C0882311F1815082317B
:10048000F8F4E82FF0E08827E75BFD4F8F4F0C94DE
:10049000CE02930297025B028B028F0260029A02E5
:1004A000A002A402AA02AE02B202B802BC0260021A
:1004B000C002C602CA02809180008F7780938000BC
:1004C000E92FF0E0EE0FFF1FEE5BFE4FA591B49118
:1004D0008FB7F894EC912E2B2C938FBFC0E400E0E3
:1004E00010E080917B00877F80937B00C0937C002D
:1004F00080917A00806480937A0080917A0086FDF2
:10050000FCCF80917800809179000115110549F3A5
:100510000E940000E6CF809180008F7DCFCF809138
:100520008000877FCBCF84B58F7784BDC9CF84B55A
:100530008F7DFBCF8091B0008F778093B000C0CFCC
:100540008091B0008F7DF9CF809190008F7780935C
:100550009000B6CF809190008F7DF9CF8091900070
:10056000877FF5CF8091A0008F778093A000A8CFE0
:100570008091A0008F7DF9CF8091A000877FF5CF7B
:10058000809120018F77809320019ACF8091200164
:100590008F7DF9CF80912001877FF5CFEE0FFF1F70
:1005A000881F8BBF0790F691E02D1994F894FFCF28
:00000001FF
